:020000040810E2
:10000000FCFF0130F104100825CC110831CC110897
:100010005DCD110881CD1108A5CD1108FF04100890
:10002000FF041008FF041008FF0410083D4C1008DE
:10003000BDCD1108FF0410086D4F100845D0110800
:10004000FF041008FF041008FF041008FF04100844
:10005000FF041008FF041008FF041008FF04100834
:10006000FF041008FF041008FF041008FF04100824
:10007000FF041008FF041008FF041008FF04100814
:10008000FF041008FF041008FF041008FF04100804
:10009000FF041008FF041008FF041008FF041008F4
:1000A000FF041008FF041008FF041008FF041008E4
:1000B000FF041008FF041008FF041008FF041008D4
:1000C000FF041008FF041008FF041008FF041008C4
:1000D000FF041008FF041008FF041008FF041008B4
:1000E000FF041008FF04100800000000FF041008BF
:1000F000FF041008FF041008FF041008FF04100894
:10010000FF041008FF041008FF041008FF04100883
:10011000FF041008FF041008FF041008FF04100873
:10012000FF041008FF041008FF041008FF04100863
:10013000FF041008FF041008FF041008FF04100853
:10014000FF041008FF041008000000000000000079
:10015000FF041008FF041008FF041008FF04100833
:10016000FF041008FF041008FF041008FF04100823
:10017000FF041008FF041008FF041008000000002E
:10018000FF041008FF041008FF041008FF04100803
:10019000FF041008FF041008FF041008FF041008F3
:1001A000FF041008FF041008FF041008FF041008E3
:1001B000FF041008FF041008FF041008FF041008D3
:1001C000FF041008FF041008FF041008FF041008C3
:1001D000FF041008FF041008FF041008FF041008B3
:1001E000FF041008FF041008FF041008FF041008A3
:1001F000FF041008FF041008FF041008FF04100893
:10020000FF041008FF041008FF041008FF04100882
:10021000FF041008FF041008FF041008FF04100872
:10022000FF041008FF041008FF041008000000007D
:10023000FF041008FF04100839D01108FF0410084B
:10024000FF041008FF041008FF041008FF04100842
:10025000FF041008FF041008FF041008FF04100832
:10026000FF041008FF041008FF041008FF04100822
:10027000FF041008FF041008FF041008FF04100812
:10028000FF041008FF041008FF041008000000001D
:10029000FF041008FF041008000000000000000028
:1002A000000000000000000000000000000000004E
:1002B000000000000000000000000000000000003E
:1002C000000000000000000000000000000000002E
:1002D000000000000000000000000000000000001E
:1004F00000F00EFA00F004F81CF0E0FDFEE7FEE765
:1005000080B400AF3B4BD3F888303A4A43F47003D1
:10051000C2F88830374B1B69364A43F01003136129
:10052000354B1B6803F00F03062B07D8324B1B68B3
:1005300023F00F03304A43F0070313602F4B1B686F
:100540002E4A43F0010313602C4B00221A612B4BFF
:100550001A682A492A4B13400B60274B1B6803F08B
:100560000803002B07D0244B1B6823F00F03224AFB
:1005700043F007031360214B00229A611F4B0022B6
:10058000DA611E4B00221A621C4B1E4A9A621B4BF8
:100590001D4ADA62194B1D4A1A63184B00225A632E
:1005A000164B1A4A9A63154B0022DA63134B174A0B
:1005B0001A64124B00225A64104B1B680F4A23F432
:1005C000802313600D4B00221A66114B5B6A104AA0
:1005D00043F4804353620F4B1B681B0C1B04B3F1A5
:1005E000005F02D20C4B01221A6000BFBD465DF8CD
:1005F000047B704700ED00E00020005200440258E8
:100600007FEDF6EA000202020000FF018002010114
:10061000C00000580010005C0881005180B48BB00D
:1006200000AFB14B1B6903F03803182B00F22E8189
:1006300001A252F823F000BF9D0610088D08100893
:100640008D0810088D0810088D0810088D081008F6
:100650008D0810088D081008B10610088D081008C4
:100660008D0810088D0810088D0810088D081008D6
:100670008D0810088D081008B70610088D0810089E
:100680008D0810088D0810088D0810088D081008B6
:100690008D0810088D081008BD061008924B1B68C5
:1006A000DB0803F00303914A22FA03F37B62F7E0CD
:1006B0008F4B7B62F4E08F4B7B62F1E08A4B9B6A4D
:1006C00003F00303FB61884B9B6A1B0903F03F03A4
:1006D000BB61854BDB6A03F001037B61824B5B6B83
:1006E000DB08C3F30C037A6902FB03F307EE903ACD
:1006F000F8EE677AC7ED047ABB69002B00F0C3807F
:10070000FB69022B59D0FB69022B78D8FB69002BBF
:1007100003D0FB69012B2ED071E0734B1B68DB0803
:1007200003F00303714A22FA03F3FB60FB6807EE50
:10073000903AF8EE676ABB6907EE903AF8EE677A8E
:1007400086EEA77A684B1B6BC3F3080307EE903A5B
:10075000F8EE676A97ED046ADFED675AC6EE257A10
:1007600076EEA77AF7EE006A77EEA67A67EE277A3A
:10077000C7ED087A71E0BB6907EE903AF8EE677A48
:10078000DFED5E6A86EEA77A574B1B6BC3F3080357
:1007900007EE903AF8EE676A97ED046ADFED565A75
:1007A000C6EE257A76EEA77AF7EE006A77EEA67A9D
:1007B00067EE277AC7ED087A4FE0BB6907EE903AFB
:1007C000F8EE677ADFED4E6A86EEA77A464B1B6B32
:1007D000C3F3080307EE903AF8EE676A97ED046AF0
:1007E000DFED455AC6EE257A76EEA77AF7EE006A77
:1007F00077EEA67A67EE277AC7ED087A2DE03A4BB6
:100800001B68DB0803F00303384A22FA03F3FB609A
:10081000FB6807EE903AF8EE676ABB6907EE903A1C
:10082000F8EE677A86EEA77A2F4B1B6BC3F30803AB
:1008300007EE903AF8EE676A97ED046ADFED2E5AFC
:10084000C6EE257A76EEA77AF7EE006A77EEA67AFC
:1008500067EE277AC7ED087A00BF234B1B6B5B0A54
:1008600003F07F030133BB60BB6807EE903AB8EE3C
:10087000677AD7ED086AC6EE877AFCEEE77A17EE5C
:10088000903A7B620CE000237B6209E0164B1B6808
:10089000DB0803F00303154A22FA03F37B6200BF6F
:1008A000114B9B691B0A03F00F03164AD35C7B6054
:1008B0007A6A7B6822FA03F37B620B4B9B6903F035
:1008C0000F03104AD35C03F01F037A6A22FA03F382
:1008D0000D4A13600C4B1B680C4A136000BF2C3789
:1008E000BD465DF8047B7047004402580090D00379
:1008F00000093D0040787D01000000460024744A54
:1009000020BCBE4BD8481208040000300000003064
:1009100080B400AF094BDB68084A23F00203D360C0
:1009200000BF064B5B6803F40053002BF9D000BFF7
:1009300000BFBD465DF8047B704700BF0048025809
:1009400080B58AB004AFF860B9607A603B607B68BC
:100950009B00184603F0B6FD38613B69002B13D0AD
:100960005C2003F0AFFD78617B69002B08D05C222E
:10097000002178691CF0D4FE7B693A691A6305E0AE
:10098000386903F0D3FE01E000237B617B69002B13
:100990000DD0002303937B6902937B6A01933B6A2A
:1009A00000933B687A68B968F86800F028F87B69BA
:1009B00018461837BD4680BD80B588B002AFF860D4
:1009C000B9607A603B607B6A01933B6A00933B6845
:1009D0007A68B968F868FFF7B3FF38613B69002BA4
:1009E00005D0386900F09FF801237B6102E04FF0E9
:1009F000FF337B617B6918461837BD4680BD80B5E3
:100A000088B000AFF860B9607A603B603B6B186BF0
:100A10007B689B001A46A5211CF082FE3B6B1A6B7B
:100A20007B6803F18043013B9B001344BB61BB69BE
:100A300023F00703BB61BB6903F00703002B0DD054
:100A40004FF0500383F31188BFF36F8FBFF34F8FC5
:100A50007B6100BF02201BF02DFEFEE7BB68002B70
:100A60001ED00023FB6112E0BA68FB6913441978B9
:100A70003A6BFB69134434330A461A70BA68FB694F
:100A800013441B78002B06D0FB690133FB61FB6923
:100A90000F2BE9D900E000BF3B6B002283F8432015
:100AA000BB6A052B0DD94FF0500383F31188BFF3B8
:100AB0006F8FBFF34F8F3B6100BF02201BF0FAFD29
:100AC000FEE7BB6A052B01D90523BB623B6BBA6A03
:100AD000DA623B6BBA6ADA643B6B0433184602F0A5
:100AE00033FA3B6B1833184602F02EFA3B6B3A6B25
:100AF0001A61BB6AC3F106023B6B9A613B6B3A6BAE
:100B00005A623A68F968B86904F036F802463B6BF5
:100B10001A60FB6A002B02D0FB6A3A6B1A6000BFB6
:100B20002037BD4680BD80B584B000AF786004F04A
:100B3000C1F9424B1B680133404A1360404B1B68AC
:100B4000002B09D13E4A7B6813603C4B1B68012B8C
:100B500010D101F045F80DE03A4B1B68002B09D18C
:100B6000374B1B68DA6A7B68DB6A9A4202D8344AE0
:100B70007B681360344B1B680133334A1360324B7C
:100B80001A687B685A647B68DA6A304B1B689A4241
:100B900003D97B68DB6A2D4A13607B68DA6A2C49CB
:100BA00013469B0013449B000B4404331B68FB60FB
:100BB0007B68FA689A60FB689A687B68DA60FB6811
:100BC0009B687A6804325A607B681A1DFB689A60D9
:100BD0007B68DA6A13469B0013449B001C4A1A4444
:100BE0007B685A617B68DA6A194913469B00134493
:100BF0009B000B441B687A68D26A591C1448134640
:100C00009B0013449B000344196004F085F90D4BCD
:100C10001B68002B0ED00A4B1B68DA6A7B68DB6A04
:100C20009A4207D20B4B4FF080521A60BFF34F8F9E
:100C3000BFF36F8F00BF1037BD4680BD9C070030EB
:100C4000DC060030A8070030B8070030A4070030E9
:100C5000E006003004ED00E080B584B000AF7860BD
:100C60000023FB607B68002B1AD000F033F9144B93
:100C70001B68012B0DD04FF0500383F31188BFF395
:100C80006F8FBFF34F8FBB6000BF02201BF012FDC0
:100C9000FEE70021786802F0A5F800F029F9F86075
:100CA000FB68002B07D1074B4FF080521A60BFF34F
:100CB0004F8FBFF36F8F00BF1037BD4680BD00BFA1
:100CC000C407003004ED00E080B58AB000AF786062
:100CD0007B683B623B6A002B0DD14FF0500383F3DE
:100CE0001188BFF36F8FBFF34F8FFB6000BF0220EF
:100CF0001BF0E0FCFEE71B4B1B683A6A9A4203D1EB
:100D0000002387F8273026E004F0D4F83B6A5B69BB
:100D1000FB613B6A9B6ABB61134B1B687B61134B96
:100D20001B683B6104F0F8F8BB69114A934203D198
:100D3000012387F827300EE0FA697B699A4203D0D5
:100D4000FA693B699A4203D1022387F8273002E00F
:100D5000012387F8273097F8273018462837BD46F3
:100D600080BD00BFDC060030800700308407003003
:100D70008807003080B58AB002AF0123FB613B4693
:100D800000221A605A609A60DA6000233B610023F7
:100D90007B6111E01F4A7B69134419783A467B69ED
:100DA00013440A461A703A467B6913441B78002B99
:100DB00006D07B6901337B617B690E2BEAD900E0A9
:100DC00000BF3A467B69134400221A700023BB61BE
:100DD00015E0114B3B61BB699B00104A1344394637
:100DE00001930023009300237F223869FFF7E4FD7D
:100DF000F861FB69012B06D1BB690133BB61BB699B
:100E0000002BE6DD00E000BFFB6918462037BD4639
:100E100080BD00BFEC481208D31B1008C00700308B
:100E200080B584B000AFFFF7A5FFF860FB68012B29
:100E300018D14FF0500383F31188BFF36F8FBFF3C6
:100E40004F8FBB6000BF134B4FF0FF321A60124B45
:100E500001221A60114B00221A601BF0B7FF03F049
:100E600012FF11E0FB68B3F1FF3F0DD14FF05003CB
:100E700083F31188BFF36F8FBFF34F8F7B6000BF89
:100E800002201BF017FCFEE7054B1B6800BF103764
:100E9000BD4680BDBC070030A8070030A007003069
:100EA000E848120880B582B000AF4FF0500383F3DA
:100EB0001188BFF36F8FBFF34F8F7B6000BF044B70
:100EC00000221A6003F0DAFF00BF0837BD4680BD7C
:100ED000A807003080B400AF044B1B680133034AFD
:100EE000136000BFBD465DF8047B7047C407003047
:100EF00080B588B000AF0023FB610023BB6103F025
:100F0000D9FF00233B61774B1B68002B0DD14FF0BD
:100F1000500383F31188BFF36F8FBFF34F8F3B6094
:100F200000BF02201BF0C6FBFEE76E4B1B68013BB7
:100F30006C4A13606B4B1B68002B40F0CB806A4BF4
:100F40001B68002B00F0C6808FE0684BDB68DB6815
:100F5000FB61FB699B6AFB60FB69DB69FA69126AEA
:100F60009A60FB691B6AFA69D2695A60FB685A6821
:100F7000FB6918339A4203D1FB691A6AFB685A600D
:100F8000FB6900229A62FB681B685A1EFB681A60A4
:100F9000FB695B69BB60FB699B68FA69D2689A6010
:100FA000FB69DB68FA6992685A60BB685A68FB693A
:100FB00004339A4203D1FB69DA68BB685A60FB6963
:100FC00000225A61BB681B685A1EBB681A60FB6925
:100FD000DA6A474B1B689A4203D9FB69DB6A444AC9
:100FE0001360FB69DA6A434913469B0013449B0074
:100FF0000B4404331B687B60FB697A689A607B68EA
:101000009A68FB69DA607B689B68FA6904325A6007
:10101000FB691A1D7B689A60FB69DA6A13469B00BC
:1010200013449B00334A1A44FB695A61FB69DA6A2C
:10103000304913469B0013449B000B441B68FA691C
:10104000D26A591C2B4813469B0013449B0003444F
:101050001960FB69DA6A284B1B68DB6A9A4204D97B
:10106000264A3B69012142F82310204B1B68002BC4
:101070007FF46BAFFB69002B01D000F0B3FE204B77
:101080001B687B617B69002B12D000F027F90346B7
:10109000002B04D0194A3B69012142F823107B69D7
:1010A000013B7B617B69002BEFD1154B00221A605D
:1010B000124A3B6952F82330002B0BD00123BB614D
:1010C0000D4B1B680F4B4FF080521A60BFF34F8FD0
:1010D000BFF36F8F03F020FFBB6918462037BD4672
:1010E00080BD00BFC40700309C0700308807003077
:1010F000A4070030E0060030DC060030B007003006
:10110000AC07003004ED00E080B483B000AF054BC5
:101110001B687B607B6818460C37BD465DF8047B16
:10112000704700BFA007003080B582B000AF03F069
:1011300096FF00237B60044B1B683B603B681846AE
:101140000837BD4680BD00BFA007003080B400AFA7
:10115000034B1B681846BD465DF8047B704700BF13
:101160009C07003080B584B000AF78607B68002BAE
:1011700002D10E4B1B6800E07B68FB60FB68002B14
:101180000DD14FF0500383F31188BFF36F8FBFF37E
:101190004F8FBB6000BF02201BF08CFAFEE7FB689C
:1011A000343318461037BD4680BD00BFDC06003022
:1011B00080B586B000AFF860B9607A6000237B61CB
:1011C00006233B61FFF786FE294B1B68BA689A42EB
:1011D00046D33B69013B3B617A691346DB0013440C
:1011E0009B001A46FB6898183A6913469B00134403
:1011F0009B00204A13440122194600F0A3FD024639
:101200007B6913447B613B69002BE2D17A69134609
:10121000DB0013449B001A46FB681344164A11680E
:101220000222184600F08EFD02467B6913447B6162
:101230007A691346DB0013449B001A46FB6813448B
:101240000E4A11680222184600F07CFD02467B69B6
:1012500013447B617B68002B02D07B6800221A60FC
:10126000FFF746FE7B6918461837BD4680BD00BFB4
:101270009C070030E0060030800700308407003013
:1012800080B584B000AF7860124B1B68002B0DD086
:101290004FF0500383F31188BFF36F8FBFF34F8F6D
:1012A000BB6000BF02201BF005FAFEE7FFF712FE4D
:1012B00003F000FE084B1A687B681344064A13606B
:1012C00003F02AFEFFF714FEF860FB68184610379B
:1012D000BD4680BDC4070030AC07003080B58AB081
:1012E00000AF00237B62804B1B68002B40F0F28034
:1012F0007E4B1B6801333B627C4A3B6A13603B6A4E
:10130000002B23D17A4B1B681B68002B0DD04FF0AC
:10131000500383F31188BFF36F8FBFF34F8F7B6050
:1013200000BF02201BF0C6F9FEE7714B1B68FB6192
:10133000704B1B686E4A13606E4AFB6913606E4BFC
:101340001B6801336C4A136000F04CFD6B4B1B684B
:101350003A6A9A42C0F0A980654B1B681B68002B53
:1013600004D1664B4FF0FF321A609EE0604B1B6861
:10137000DB68DB68BB61BB695B687B613A6A7B6980
:101380009A4203D25D4A7B6913608EE0BB695B6958
:101390003B61BB699B68BA69D2689A60BB69DB68CC
:1013A000BA6992685A603B695A68BB6904339A42C9
:1013B00003D1BB69DA683B695A60BB6900225A6194
:1013C0003B691B685A1E3B691A60BB699B6A002B0C
:1013D0001ED0BB699B6AFB60BB69DB69BA69126A94
:1013E0009A60BB691B6ABA69D2695A60FB685A681D
:1013F000BB6918339A4203D1BB691A6AFB685A6009
:10140000BB6900229A62FB681B685A1EFB681A605F
:10141000BB69DA6A3A4B1B689A4203D9BB69DB6A3B
:10142000374A1360BB69DA6A364913469B00134496
:101430009B000B4404331B68BB60BB69BA689A60AD
:10144000BB689A68BB69DA60BB689B68BA6904329A
:101450005A60BB691A1DBB689A60BB69DA6A134699
:101460009B0013449B00274A1A44BB695A61BB691D
:10147000DA6A244913469B0013449B000B441B6803
:10148000BA69D26A591C1F4813469B0013449B003B
:1014900003441960BB69DA6A1B4B1B68DB6A9A421A
:1014A0007FF65AAF01237B6256E7174B1B68DA6A57
:1014B000144913469B0013449B000B441B68012BEB
:1014C00001D901237B62114B1B68002B07D001233C
:1014D0007B6204E00E4B1B6801330D4A13607B6A8C
:1014E00018462837BD4680BDC4070030A00700302D
:1014F0008007003084070030B4070030BC0700309C
:10150000A4070030E0060030DC060030B0070030F1
:10151000AC07003080B584B000AF294B1B68002BAE
:1015200003D0284B01221A6045E0264B00221A60A6
:10153000254B1B68FB6013E0FB68002B0DD14FF0BF
:10154000500383F31188BFF36F8FBFF34F8F7B601E
:1015500000BF02201BF0AEF8FEE7FB68013BFB601A
:101560001A49FA6813469B0013449B000B441B68FE
:10157000002BE1D0FA6813469B0013449B00134AEA
:101580001344BB60BB685B685A68BB685A60BB6841
:101590005A68BB6808339A4203D1BB68DA68BB68F3
:1015A0005A60BB685B68DB68094A1360064AFB68DF
:1015B0001360074B1B6800BF1037BD4680BD00BFDE
:1015C000C4070030B0070030A4070030E006003048
:1015D000DC06003080B584B000AF786039607B688D
:1015E000002B0DD14FF0500383F31188BFF36F8FA1
:1015F000BFF34F8FFB6000BF02201BF05BF8FEE7DC
:10160000074B1B6818331946786801F0CEFC01219E
:10161000386801F0E7FB00BF1037BD4680BD00BF52
:10162000DC06003080B588B000AFF860B9607A6041
:10163000FB68002B0DD14FF0500383F31188BFF3EB
:101640006F8FBFF34F8FBB6100BF02201BF032F8DA
:10165000FEE7204B1B68002B0DD14FF0500383F3A6
:101660001188BFF36F8FBFF34F8F7B6100BF0220E4
:101670001BF020F8FEE7184B1B68BA6842F00042E6
:101680009A61FB685B68FB61134B1B68FA69DA615E
:10169000114B1B68FA6992681A620F4B1A68FB6952
:1016A0009B6818325A600C4B1B6803F11802FB69E7
:1016B0009A60094B1B68FA689A62FB681B685A1C9F
:1016C000FB681A600121786801F08CFB00BF2037AD
:1016D000BD4680BDC4070030DC06003080B58AB04E
:1016E00000AF78607B68DB68DB683B623B6A002B9D
:1016F0000DD14FF0500383F31188BFF36F8FBFF309
:101700004F8FFB6000BF02201AF0D4FFFEE73B6A58
:101710009B6AFB613B6ADB693A6A126A9A603B6AC0
:101720001B6A3A6AD2695A60FB695A683B6A183385
:101730009A4203D13B6A1A6AFB695A603B6A0022EB
:101740009A62FB691B685A1EFB691A604A4B1B6848
:10175000002B61D13B6A5B697B613B6A9B683A6A9B
:10176000D2689A603B6ADB683A6A92685A607B6921
:101770005A683B6A04339A4203D13B6ADA687B6950
:101780005A603B6A00225A617B691B685A1E7B695A
:101790001A603B6ADA6A394B1B689A4203D93B6A82
:1017A000DB6A364A13603B6ADA6A354913469B00A6
:1017B00013449B000B4404331B683B613B6A3A694A
:1017C0009A603B699A683B6ADA603B699B683A6A4F
:1017D00004325A603B6A1A1D3B699A603B6ADA6AB6
:1017E00013469B0013449B00254A1A443B6A5A61E6
:1017F0003B6ADA6A224913469B0013449B000B4460
:101800001B683A6AD26A591C1D4813469B00134450
:101810009B00034419601BE01A4B5B68BB613B6A89
:10182000BA69DA61BB699A683B6A1A62BB699B68EC
:101830003A6A18325A603B6A03F11802BB699A602F
:101840003B6A104A9A620F4B1B6801330D4A1360C2
:101850003B6ADA6A0C4B1B68DB6A9A4205D90123A2
:101860007B620A4B01221A6001E000237B627B6AE3
:1018700018462837BD4680BDC4070030A407003095
:10188000E006003088070030DC060030B00700308A
:1018900080B588B000AF786039605C4B1B68002B66
:1018A0000DD14FF0500383F31188BFF36F8FBFF357
:1018B0004F8FFB6000BF02201AF0FCFEFEE73B6882
:1018C00043F000427B681A607B68DB68FB61FB6960
:1018D000002B0DD14FF0500383F31188BFF36F8FAE
:1018E000BFF34F8FBB6000BF02201AF0E3FEFEE79C
:1018F0007B681B69BB617B685B687A6892689A60E9
:101900007B689B687A6852685A60BB695B687A68D2
:101910009A4203D17B689A68BB695A607B6800224F
:101920001A61BB691B685A1EBB691A60FB695B6957
:101930007B61FB699B68FA69D2689A60FB69DB6826
:10194000FA6992685A607B695A68FB6904339A4263
:1019500003D1FB69DA687B695A60FB6900225A612E
:101960007B691B685A1E7B691A60FB69DA6A284B1F
:101970001B689A4203D9FB69DB6A254A1360FB693D
:10198000DA6A244913469B0013449B000B4404333A
:101990001B683B61FB693A699A603B699A68FB691D
:1019A000DA603B699B68FA6904325A60FB691A1D68
:1019B0003B699A60FB69DA6A13469B0013449B00FB
:1019C000144A1A44FB695A61FB69DA6A11491346E1
:1019D0009B0013449B000B441B68FA69D26A591C94
:1019E0000C4813469B0013449B0003441960FB6999
:1019F000DA6A094B1B68DB6A9A4202D9074B01225B
:101A00001A6000BF2037BD4680BD00BFC40700304C
:101A1000A4070030E0060030DC060030B0070030DC
:101A200080B584B000AF78607B68002B0DD14FF09B
:101A3000500383F31188BFF36F8FBFF34F8FFB60A9
:101A400000BF02201AF036FEFEE703F033FA074B20
:101A50001A687B681A60064B1A687B685A6003F044
:101A60005BFA00BF1037BD4680BD00BFB407003031
:101A7000A007003080B483B000AF7860064B1A68CE
:101A80007B681A60054B1A687B685A6000BF0C3788
:101A9000BD465DF8047B7047B4070030A0070030F6
:101AA00080B588B000AF786039607B68002B0DD1BD
:101AB0004FF0500383F31188BFF36F8FBFF34F8F45
:101AC0003B6100BF02201AF0F5FDFEE73B68002BEA
:101AD0000DD14FF0500383F31188BFF36F8FBFF325
:101AE0004F8FFB6000BF02201AF0E4FDFEE703F019
:101AF000E1F91B4B1B68BB617B685B68BA69D31A51
:101B00007B617B681A68174B1B689A420AD07B6816
:101B10005B68BA699A4205D30123FB613B680022E6
:101B20001A6015E03B681B687A699A420BD23B68E1
:101B30001A687B69D21A3B681A607868FFF79AFFC7
:101B40000023FB6104E03B6800221A600123FB6173
:101B500003F0E2F9FB6918462037BD4680BD00BF9F
:101B6000A0070030B407003080B400AF034B01225F
:101B70001A6000BFBD465DF8047B7047B0070030B7
:101B800080B485B000AF78607B68002B05D07B689F
:101B9000BB60BB689B6CFB6001E00023FB60FB68E3
:101BA00018461437BD465DF8047B704780B485B095
:101BB00000AF786039607B68002B04D07B68FB60E5
:101BC000FB683A689A6400BF1437BD465DF8047B31
:101BD000704780B582B000AF786000F037F8FCE75E
:101BE00080B582B000AF00237B600CE07A681346BA
:101BF0009B0013449B000F4A1344184601F084F9DC
:101C00007B6801337B607B68052BEFD90A4801F0C4
:101C10007BF90A4801F078F9094801F075F9094B98
:101C2000054A1A60084B054A1A6000BF0837BD46CE
:101C300080BD00BFE0060030580700306C07003060
:101C400088070030800700308407003080B400AF80
:101C500000BFBD465DF8047B704780B586B000AF1D
:101C6000F860B9607A60FB70FB68002B02D1334BDF
:101C70001B6800E0FB687B617B69002B0DD14FF096
:101C8000500383F31188BFF36F8FBFF34F8F3B6116
:101C900000BF02201AF00EFDFEE7BB687A691A60E9
:101CA0007B6903F13402BB685A607B69DA6ABB68FE
:101CB0001A617B691A6BBB68DA617B695A6CBB6815
:101CC0009A607B69DA6CBB685A61BB6800229A61D2
:101CD000FB78052B18D0194B1B687A699A4203D1FF
:101CE000BB6800221A7316E0BB68FA781A7303F017
:101CF000E1F87B699B6A124A934202D1BB680122D8
:101D00001A7303F009F906E07869FEF7DDFF034670
:101D10001A46BB681A737B68002B08D07B691B6B63
:101D2000184600F044F80246BB681A6202E0BB683D
:101D300000221A6200BF1837BD4680BDDC060030A5
:101D40008807003080B588B000AFF860B9601346EE
:101D5000FB710023FB61BB6808337B6100233B619F
:101D6000BB681B68002B1DD0BB68DB68BB6115E03E
:101D7000BB69DB683B61FA691346DB0013449B00D7
:101D80001A46FB689918FB7901223869FFF765FF4D
:101D9000FB690133FB61BB695B68BB61BA697B6945
:101DA0009A42E5D1FB6918462037BD4680BD80B414
:101DB00085B000AF78600023FB6005E07B680133ED
:101DC0007B60FB680133FB607B681B78A52BF5D03B
:101DD000FB689B08FB60FB6818461437BD465DF83E
:101DE000047B704780B400AF0A4B1B681B68002B54
:101DF00004D1094B4FF0FF321A6005E0054B1B6818
:101E0000DB681B68044A136000BFBD465DF8047BB5
:101E1000704700BF80070030BC07003080B483B03B
:101E200000AF054B1B687B607B6818460C37BD46CE
:101E30005DF8047B704700BFDC06003080B485B0DD
:101E400000AF78600023FB607B68002B05DB7B68BC
:101E5000002B02DC044B1B68FB60FB681846143740
:101E6000BD465DF8047B7047DC06003080B483B06B
:101E700000AF0B4B1B68002B02D101237B6008E0F5
:101E8000084B1B68002B02D102237B6001E000237A
:101E90007B607B6818460C37BD465DF8047B704755
:101EA000A8070030C407003080B586B000AF786066
:101EB0007B683B6100237B617B68002B7BD03B69A7
:101EC000DA6A3F4B1B68DB6A9A426BD23B699B69BB
:101ED000002B06DB3A4B1B68DB6AC3F106023B6949
:101EE0009A613B6959693B69DA6A13469B0013445E
:101EF0009B00344A134499424CD13B690433184641
:101F000001F08CF82E4B1B68DA6A3B69DA623B6998
:101F1000DA6A2D4B1B689A4203D93B69DB6A2A4A6D
:101F200013603B69DA6A274913469B0013449B0000
:101F30000B4404331B68FB603B69FA689A60FB68DA
:101F40009A683B69DA60FB689B683A6904325A60B8
:101F50003B691A1DFB689A603B69DA6A13469B006D
:101F600013449B00174A1A443B695A613B69DA6A79
:101F7000144913469B0013449B000B441B683A69A9
:101F8000D26A591C0F4813469B0013449B0003441C
:101F9000196004E00A4B1B68DA6A3B69DA620123C4
:101FA0007B6108E03B69DA6C054B1B68DB6A9A428F
:101FB00001D201237B617B6918461837BD4680BD7D
:101FC000DC060030E0060030A407003080B588B0A1
:101FD00000AF78607B68BB610023FB617B68002BEE
:101FE00000F08780454B1B68BA699A420DD04FF0CC
:101FF000500383F31188BFF36F8FBFF34F8F3B61A3
:1020000000BF02201AF056FBFEE7BB691B6D002BD8
:102010000DD14FF0500383F31188BFF36F8FBFF3DF
:102020004F8FFB6000BF02201AF044FBFEE7BB6944
:102030001B6D5A1EBB691A65BB69DA6ABB69DB6C2A
:102040009A4256D0BB691B6D002B52D1BB69043339
:10205000184600F0E3FFBB69DA6CBB69DA62BB6962
:10206000DB6AC3F10602BB699A61BB69DA6A244B79
:102070001B689A4203D9BB69DB6A214A1360BB69BA
:10208000DA6A204913469B0013449B000B44043337
:102090001B687B61BB697A699A607B699A68BB69D6
:1020A000DA607B699B68BA6904325A60BB691A1DA1
:1020B0007B699A60BB69DA6A13469B0013449B00F4
:1020C000104A1A44BB695A61BB69DA6A0D49134662
:1020D0009B0013449B000B441B68BA69D26A591CCD
:1020E000084813469B0013449B00034419600123D6
:1020F000FB61FB6918462037BD4680BDDC06003019
:10210000A4070030E006003080B58AB000AF7860E8
:1021100039607B683B620123FB617B68002B00F028
:102120009B803B6A1B6D002B0DD14FF0500383F356
:102130001188BFF36F8FBFF34F8F3B6100BF022049
:102140001AF0B8FAFEE73B6ADB6C3A689A4202D9A9
:102150003B687B6202E03B6ADB6C7B623B6ADB6A6A
:102160007A6A9A4278D03B6A1B6DFA699A4273D1B7
:102170003B4B1B683A6A9A420DD14FF0500383F3F0
:102180001188BFF36F8FBFF34F8FFB6000BF02203A
:102190001AF090FAFEE73B6ADB6ABB613B6A7A6A37
:1021A000DA623B6A9B69002B04DB7B6AC3F106029F
:1021B0003B6A9A613B6A5969BA6913469B001344AA
:1021C0009B00284A1344994246D13B6A043318467F
:1021D00000F024FF3B6ADA6A234B1B689A4203D95A
:1021E0003B6ADB6A204A13603B6ADA6A1D49134680
:1021F0009B0013449B000B4404331B687B613B6AC8
:102200007A699A607B699A683B6ADA607B699B6845
:102210003A6A04325A603B6A1A1D7B699A603B6ACB
:10222000DA6A13469B0013449B000E4A1A443B6A29
:102230005A613B6ADA6A0B4913469B0013449B00C0
:102240000B441B683A6AD26A591C064813469B0025
:1022500013449B000344196000BF2837BD4680BD6E
:10226000DC060030E0060030A407003080B483B004
:1022700000AF094B1B689B697B60074B1B68DA6AE0
:10228000054B1B68C2F106029A617B6818460C3741
:10229000BD465DF8047B7047DC06003080B483B037
:1022A00000AF094B1B687B607B68002B04D07B6808
:1022B0001B6D5A1C7B681A657B6818460C37BD4637
:1022C0005DF8047B704700BFDC06003080B588B045
:1022D00000AFF860B9607A600023FB61FB68002BF7
:1022E0000DD04FF0500383F31188BFF36F8FBFF30E
:1022F0004F8F3B6100BF02201AF0DCF9FEE7364B3E
:102300001A68FB6814339B0013445B68002B32D1BE
:102310007B68002B2FD0FEF7DDFD02F0CBFD2E4BAE
:102320001A68FB6814339B0013445B68002B08D1C8
:10233000294B1A68FB681344583301221A70012391
:10234000FB6102F0E9FDFB69012B03D101217868F3
:1023500000F048FDFEF7CCFDB861FB69012B0AD106
:10236000BB69002B07D11D4B4FF080521A60BFF3A1
:102370004F8FBFF36F8F02F09DFD174B1A68FB68FC
:1023800014339B0013445B687B617B69002B14D082
:10239000BB68002B08D0104B1A68FB6814339B00F5
:1023A000134400225A6008E00B4B19687B695A1EDF
:1023B000FB6814339B000B445A60074B1A68FB6898
:1023C0001344583300221A7002F0A6FD7B691846A8
:1023D0002037BD4680BD00BFDC06003004ED00E0C4
:1023E00080B588B000AFF860B9607A603B600023C8
:1023F000BB61FB68002B0DD04FF0500383F31188B5
:10240000BFF36F8FBFF34F8F3B6100BF02201AF005
:1024100051F9FEE7414B1A68FB68134458331B78A7
:10242000DBB2022B41D0BB6A002B3ED0FEF752FD3F
:1024300002F040FD394B1A68FB68134458331B788F
:10244000DBB2022B17D0354B1A68FB6814339B00A4
:1024500013445968BB68DB431940FB6814339B0085
:10246000134459602D4B1A68FB68134458330122FA
:102470001A700123BB6102F04FFDBB69012B03D130
:102480000121B86A00F0AEFCFEF732FD7861BB694D
:10249000012B0AD17B69002B07D1214B4FF08052D1
:1024A0001A60BFF34F8FBFF36F8F02F003FD3B68DD
:1024B000002B08D0194B1A68FB6814339B00134497
:1024C0005A683B681A60154B1A68FB681344583306
:1024D0001B78DBB2022B02D00023FB6110E00F4B14
:1024E0001A68FB6814339B00134459687B68DB430C
:1024F0001940FB6814339B00134459600123FB61AE
:10250000064B1A68FB681344583300221A7002F015
:1025100003FDFB6918462037BD4680BDDC06003050
:1025200004ED00E080B58EB000AFF860B9607A606D
:10253000FB7001237B63BB68002B0DD04FF0500371
:1025400083F31188BFF36F8FBFF34F8F3B6200BFE0
:1025500002201AF0AFF8FEE7FB68002B0DD14FF018
:10256000500383F31188BFF36F8FBFF34F8FFB616D
:1025700000BF02201AF09EF8FEE7FB683B6302F002
:1025800099FC3B6C002B07D03A6BBB6814339B0063
:1025900013445A683B6C1A603A6BBB681344583357
:1025A0001B7887F82F303A6BBB68134458330222EC
:1025B0001A70FB78042B41D801A252F823F000BF17
:1025C00061261008D5251008F32510080F261008DD
:1025D0001F2610083A6BBB6814339B0013445A68DB
:1025E0007B681A43396BBB6814339B000B445A60F9
:1025F00039E03A6BBB6814339B0013445B685A1C88
:10260000396BBB6814339B000B445A602BE03A6B68
:10261000BB6814339B0013447A685A6023E097F830
:102620002F30022B07D03A6BBB6814339B00134446
:102630007A685A6017E000237B6314E0514B1B68F3
:10264000002B0FD04FF0500383F31188BFF36F8F2F
:10265000BFF34F8FBB6100BF02201AF02BF8FEE7DB
:1026600000BF00E000BF97F82F30012B40F08280C0
:102670003B6B5B69BB623B6B9B683A6BD2689A6051
:102680003B6BDB683A6B92685A60BB6A5A683B6B7B
:1026900004339A4203D13B6BDA68BB6A5A603B6BE6
:1026A00000225A61BB6A1B685A1EBB6A1A603B6BE8
:1026B000DA6A354B1B689A4203D93B6BDB6A324AB4
:1026C00013603B6BDA6A314913469B0013449B004D
:1026D0000B4404331B687B623B6B7A6A9A607B6AAB
:1026E0009A683B6BDA607B6A9B683A6B04325A608B
:1026F0003B6B1A1D7B6A9A603B6BDA6A13469B0040
:1027000013449B00214A1A443B6B5A613B6BDA6AC3
:102710001E4913469B0013449B000B441B683A6BF5
:10272000D26A591C194813469B0013449B0003446A
:1027300019603B6B9B6A002B0DD04FF0500383F365
:102740001188BFF36F8FBFF34F8F7B6100BF0220F3
:1027500019F0B0FFFEE70E4B1B68DA6A3B6BDB6AD1
:102760009A4207D20B4B4FF080521A60BFF34F8F43
:10277000BFF36F8F02F0D0FB7B6B18463837BD4636
:1027800080BD00BFA0070030A4070030E006003085
:10279000DC06003004ED00E080B592B000AFF860D8
:1027A000B9607A60FB7001237B64FB68002B0DD15C
:1027B0004FF0500383F31188BFF36F8FBFF34F8F38
:1027C000BB6200BF022019F075FFFEE7BB68002B5B
:1027D0000DD04FF0500383F31188BFF36F8FBFF319
:1027E0004F8F7B6200BF022019F064FFFEE702F00A
:1027F00036FCFB683B64EFF311824FF0500383F328
:102800001188BFF36F8FBFF34F8F3A62FB613B6A52
:10281000FB633B6D002B07D03A6CBB6814339B0005
:1028200013445A683B6D1A603A6CBB6813445833C2
:102830001B7887F83B303A6CBB681344583302224C
:102840001A70FB78042B41D801A252F823F000BF84
:10285000F128100865281008832810089F28100800
:10286000AF2810083A6CBB6814339B0013445A68B5
:102870007B681A43396CBB6814339B000B445A6065
:1028800039E03A6CBB6814339B0013445B685A1CF4
:10289000396CBB6814339B000B445A602BE03A6CD4
:1028A000BB6814339B0013447A685A6023E097F89E
:1028B0003B30022B07D03A6CBB6814339B001344A7
:1028C0007A685A6017E000237B6414E0644B1B684D
:1028D000002B0FD04FF0500383F31188BFF36F8F9D
:1028E000BFF34F8FBB6100BF022019F0E3FEFEE78C
:1028F00000BF00E000BF97F83B30012B40F0A48000
:102900003B6C9B6A002B0DD04FF0500383F3118872
:10291000BFF36F8FBFF34F8F7B6100BF022019F0B1
:10292000C9FEFEE74F4B1B68002B61D13B6C5B6916
:102930003B633B6C9B683A6CD2689A603B6CDB688B
:102940003A6C92685A603B6B5A683B6C04339A420B
:1029500003D13B6CDA683B6B5A603B6C00225A61D6
:102960003B6B1B685A1E3B6B1A603B6CDA6A3E4B32
:102970001B689A4203D93B6CDB6A3B4A13603B6C91
:10298000DA6A3A4913469B0013449B000B44043314
:102990001B68FB623B6CFA6A9A60FB6A9A683B6C44
:1029A000DA60FB6A9B683A6C04325A603B6C1A1D11
:1029B000FB6A9A603B6CDA6A13469B0013449B00E7
:1029C0002A4A1A443B6C5A613B6CDA6A274913461F
:1029D0009B0013449B000B441B683A6CD26A591C41
:1029E000224813469B0013449B00034419601BE0DC
:1029F0001F4B5B687B633B6C7A6BDA617B6B9A681D
:102A00003B6C1A627B6B9B683A6C18325A603B6C69
:102A100003F118027B6B9A603B6C154A9A62144B67
:102A20001B680133124A13603B6CDA6A114B1B6856
:102A3000DB6A9A4208D97B6D002B02D07B6D0122A4
:102A40001A600D4B01221A60FB6B3B613B6983F3FB
:102A5000118800BF7B6C18464837BD4680BD00BF5B
:102A6000A0070030C4070030A4070030E0060030A3
:102A700088070030DC060030B007003080B590B029
:102A800000AFF860B9607A60FB68002B0DD14FF0A1
:102A9000500383F31188BFF36F8FBFF34F8F7B62B7
:102AA00000BF022019F006FEFEE7BB68002B0DD028
:102AB0004FF0500383F31188BFF36F8FBFF34F8F35
:102AC0003B6200BF022019F0F5FDFEE702F0C7FAF5
:102AD000FB68FB63EFF311824FF0500383F311881F
:102AE000BFF36F8FBFF34F8FFA61BB61FB69BB63AD
:102AF000FA6BBB68134458331B7887F83730FA6B8E
:102B0000BB681344583302221A70FA6BBB68143343
:102B10009B0013445B685A1CF96BBB6814339B0021
:102B20000B445A6097F83730012B40F0A480FB6BC0
:102B30009B6A002B0DD04FF0500383F31188BFF335
:102B40006F8FBFF34F8F7B6100BF022019F0B2FD82
:102B5000FEE74E4B1B68002B61D1FB6B5B69FB6290
:102B6000FB6B9B68FA6BD2689A60FB6BDB68FA6B55
:102B700092685A60FB6A5A68FB6B04339A4203D12D
:102B8000FB6BDA68FB6A5A60FB6B00225A61FB6AD6
:102B90001B685A1EFB6A1A60FB6BDA6A3C4B1B68A7
:102BA0009A4203D9FB6BDB6A394A1360FB6BDA6A22
:102BB000384913469B0013449B000B4404331B68A5
:102BC000BB62FB6BBA6A9A60BB6A9A68FB6BDA609D
:102BD000BB6A9B68FA6B04325A60FB6B1A1DBB6AB6
:102BE0009A60FB6BDA6A13469B0013449B00294AE8
:102BF0001A44FB6B5A61FB6BDA6A264913469B0049
:102C000013449B000B441B68FA6BD26A591C214881
:102C100013469B0013449B00034419601BE01E4BAA
:102C20005B683B63FB6B3A6BDA613B6B9A68FB6BEF
:102C30001A623B6B9B68FA6B18325A60FB6B03F1AC
:102C400018023B6B9A60FB6B134A9A62124B1B682B
:102C50000133114A1360FB6BDA6A104B1B68DB6AA5
:102C60009A4208D97B68002B02D07B6801221A6047
:102C70000B4B01221A60BB6B3B613B6983F31188EC
:102C800000BF00BF4037BD4680BD00BFC407003055
:102C9000A4070030E006003088070030DC06003072
:102CA000B007003080B586B000AF786039603B680F
:102CB000002B0DD04FF0500383F31188BFF36F8FBB
:102CC000BFF34F8FFB6000BF022019F0F3FCFEE75B
:102CD0007B68002B02D1194B1B6800E07B683B61CD
:102CE0003B69002B0DD14FF0500383F31188BFF3E4
:102CF0006F8FBFF34F8FBB6000BF022019F0DAFC6B
:102D0000FEE702F0D7F83A693B68134458331B7862
:102D1000DBB2022B08D13A693B68134458330022D6
:102D20001A7001237B6101E000237B6102F0F4F85B
:102D30007B6918461837BD4680BD00BFDC060030F1
:102D400080B588B000AFF860B9607A60BB68002BCE
:102D50000DD04FF0500383F31188BFF36F8FBFF393
:102D60004F8F7B6100BF022019F0A4FCFEE7FB68D7
:102D7000002B02D11A4B1B6800E0FB68FB61FB696A
:102D8000002B0DD14FF0500383F31188BFF36F8FE9
:102D9000BFF34F8F3B6100BF022019F08BFCFEE7B1
:102DA00002F088F8FA69BB6814339B0013445B682F
:102DB000BB61FA69BB6814339B0013445A687B6893
:102DC000DB431A40F969BB6814339B000B445A601B
:102DD00002F0A2F8BB6918462037BD4680BD00BF8F
:102DE000DC06003080B586B000AF786039601B4BE0
:102DF0001B687B611A4B1B683B611A4B1B68FB60AD
:102E0000194B1B680433184600F008F97A697B688F
:102E10001344BB60144B1B68BA685A60BA687B697C
:102E20009A4207D2104B1B6804331946F86800F029
:102E3000BCF80EE00C4B1B6804331946386900F0EF
:102E4000B4F80A4B1B68BA689A4202D2074ABB68B8
:102E5000136000BF1837BD4680BD00BFA00700301B
:102E60008007003084070030DC060030BC070030EB
:102E700080B483B000AF194B00221A60184B0022B7
:102E80001A60184B00221A60174B00221A60174B69
:102E900000221A60164B00221A6000237B6007E0B4
:102EA000144A7B68002142F823107B6801337B6061
:102EB0007B68002BF4DD104B00221A600F4B0022C0
:102EC0001A600F4B00221A600E4B00221A6000BFDE
:102ED0000C37BD465DF8047B704700BFDC06003050
:102EE0009C070030A0070030A4070030A80700307E
:102EF000AC070030B0070030B4070030B80700302E
:102F0000BC070030C407003080B483B000AF7860E5
:102F10007B6803F108027B685A607B684FF0FF32E0
:102F20009A607B6803F108027B68DA607B6803F1D2
:102F300008027B681A617B6800221A6000BF0C37A8
:102F4000BD465DF8047B704780B483B000AF786005
:102F50007B6800221A6100BF0C37BD465DF8047B18
:102F6000704780B485B000AF786039607B685B687B
:102F7000FB603B68FA685A60FB689A683B689A6035
:102F8000FB689B683A685A60FB683A689A603B68DD
:102F90007A681A617B681B685A1C7B681A6000BFDC
:102FA0001437BD465DF8047B704780B485B000AF30
:102FB000786039603B681B68BB60BB68B3F1FF3F5A
:102FC00003D17B681B69FB600CE07B680833FB6006
:102FD00002E0FB685B68FB60FB685B681B68BA68C3
:102FE0009A42F6D2FB685A683B685A603B685B6855
:102FF0003A689A603B68FA689A60FB683A685A6077
:103000003B687A681A617B681B685A1C7B681A6087
:1030100000BF1437BD465DF8047B704780B485B0AF
:1030200000AF78607B681B69FB607B685B687A68CF
:1030300092689A607B689B687A6852685A60FB68FD
:103040005B687A689A4203D17B689A68FB685A6029
:103050007B6800221A61FB681B685A1EFB681A60B5
:10306000FB681B6818461437BD465DF8047B704743
:1030700080B586B000AF7860396001237B617B68E2
:103080003B613B69002B0DD14FF0500383F3118856
:10309000BFF36F8FBFF34F8FFB6000BF022019F0AB
:1030A00009FBFEE73B69002B5DD03B69DB6B002B26
:1030B00059D03B691A6C3B69DB6B0021A3FB0223EF
:1030C000002B00D001210B46002B4CD101F0F2FE69
:1030D0003B691A683B69DB6B3969096C01FB03F3D7
:1030E0001A443B699A603B6900229A633B691A68FB
:1030F0003B695A603B691A683B69DB6B013B396984
:10310000096C01FB03F31A443B69DA603B69FF2257
:1031100083F844203B69FF2283F845203B68002B5D
:1031200014D13B691B69002B1AD03B691033184638
:10313000FEF7D4FA0346002B12D0174B4FF0805203
:103140001A60BFF34F8FBFF36F8F09E03B691033F5
:103150001846FFF7D9FE3B6924331846FFF7D4FE23
:1031600001F0DAFE01E000237B617B69002B0DD1C9
:103170004FF0500383F31188BFF36F8FBFF34F8F6E
:10318000BB6000BF022019F095FAFEE77B69184684
:103190001837BD4680BD00BF04ED00E080B58AB0A1
:1031A00002AFF860B9601346FB710023FB61FB6856
:1031B000002B2ED00021BA68FB68A3FB0223002B52
:1031C00000D001210B46002B23D1FB68BA6802FB1B
:1031D00003F313F1510F1CD8FB68BA6802FB03F329
:1031E000BB61BB695033184601F06CF9F861FB69AB
:1031F000002B1FD0FB697B617B6950337B61FA79BF
:10320000FB69009313467A69B968F86800F017F80B
:1032100010E0FB69002B0DD14FF0500383F31188B0
:10322000BFF36F8FBFF34F8F3B6100BF022019F0D8
:1032300041FAFEE7FB6918462037BD4680BD80B5E0
:1032400084B000AFF860B9607A60FB70BB68002B97
:1032500003D1BB69BA691A6002E0BB697A681A6077
:10326000BB69FA68DA63BB69BA681A640121B86994
:10327000FFF7FEFEBB69FA7883F84C2000BF1037D9
:10328000BD4680BD80B582B000AF78607B68002B02
:103290000ED07B6800229A607B6800221A607B68EF
:1032A0000022DA60002300220021786800F01CF878
:1032B00000BF0837BD4680BD80B586B000AF03466D
:1032C000FB7101237B6100233B61FB791A4639695D
:1032D0007869FFF763FFF860F868FFF7D3FFFB68D2
:1032E00018461837BD4680BD80B58EB000AFF86077
:1032F000B9607A603B6000237B63FB683B633B6B98
:10330000002B0DD14FF0500383F31188BFF36F8F63
:10331000BFF34F8FBB6200BF022019F0CBF9FEE76D
:10332000BB68002B11D13B6B1B6C002B0DD04FF0F9
:10333000500383F31188BFF36F8FBFF34F8F7B620E
:1033400000BF022019F0B6F9FEE73B68022B11D14D
:103350003B6BDB6B012B0DD04FF0500383F31188D7
:10336000BFF36F8FBFF34F8F3B6200BF022019F096
:10337000A1F9FEE7FEF77AFD0346002B10D17B682A
:10338000002B0DD04FF0500383F31188BFF36F8FE4
:10339000BFF34F8FFB6100BF022019F08BF9FEE7EE
:1033A00001F088FD3B6B9A6B3B6BDB6B9A4202D35F
:1033B0003B68022B29D13A68B968386B00F067FE88
:1033C000F8623B6B5B6A002B10D03B6B24331846D2
:1033D000FEF784F90346002B13D0404B4FF0805288
:1033E0001A60BFF34F8FBFF36F8F0AE0FB6A002BA9
:1033F00007D03A4B4FF080521A60BFF34F8FBFF3A4
:103400006F8F01F089FD012363E07B68002B03D1FE
:1034100001F082FD00235CE07B6B002B06D107F1FD
:1034200014031846FEF726FB01237B6301F074FDAD
:10343000FDF750FD01F03EFD3B6B93F844305BB26D
:10344000B3F1FF3F03D13B6B002283F844203B6B79
:1034500093F845305BB2B3F1FF3F03D13B6B0022E1
:1034600083F8452001F058FD3A1D07F11403114679
:103470001846FEF715FB0346002B24D1386B00F0ED
:1034800023FF0346002B18D03B6B10337A6811469C
:103490001846FEF79FF8386B00F089FEFDF728FD0F
:1034A0000346002B7FF47CAF0C4B4FF080521A6028
:1034B000BFF34F8FBFF36F8F72E7386B00F077FE6B
:1034C000FDF716FD6CE7386B00F071FEFDF710FD9F
:1034D000002318463837BD4680BD00BF04ED00E02C
:1034E00080B590B000AFF860B9607A603B60FB686F
:1034F000BB63BB6B002B06D0BB68002B11D1BB6B31
:103500001B6C002B0DD04FF0500383F31188BFF3D9
:103510006F8FBFF34F8F7B6200BF022019F0CAF894
:10352000FEE7BB6B002B06D03B68022B11D1BB6BB7
:10353000DB6B012B0DD04FF0500383F31188BFF3E9
:103540006F8FBFF34F8F3B6200BF022019F0B2F8BC
:10355000FEE701F084FDEFF311824FF0500383F397
:103560001188BFF36F8FBFF34F8FFA61BB61FB69A7
:103570007B63BB6B9A6BBB6BDB6B9A4202D33B6882
:10358000022B49D1BB6B93F8453087F83330BB6BC6
:103590009B6BFB623A68B968B86B00F078FD97F9ED
:1035A0003330B3F1FF3F12D1BB6B5B6A002B30D0DD
:1035B000BB6B24331846FEF791F80346002B28D046
:1035C0007B68002B25D07B6801221A6021E0FDF783
:1035D000BDFDB86297F93330BA6A9A4219D997F9A2
:1035E00033307F2B0DD14FF0500383F31188BFF39D
:1035F0006F8FBFF34F8F7B6100BF022019F05AF825
:10360000FEE797F833300133DBB25AB2BB6B83F875
:1036100045200123FB6301E00023FB637B6B3B61DF
:103620003B6983F3118800BFFB6B18464037BD46EA
:1036300080BD80B58EB000AF786039607B683B6339
:103640003B6B002B03D03B6B1B6C002B0DD04FF062
:10365000500383F31188BFF36F8FBFF34F8FFB616C
:1036600000BF022019F026F8FEE73B6B002B07D0C5
:103670003B6B1B68002B11D13B6B9B68002B0DD063
:103680004FF0500383F31188BFF36F8FBFF34F8F59
:10369000BB6100BF022019F00DF8FEE701F0DFFC6E
:1036A000EFF311824FF0500383F31188BFF36F8F54
:1036B000BFF34F8F7A613B617B69FB623B6B9B6B16
:1036C000BB623B6BDB6BBA6A9A4245D23B6B93F8A9
:1036D000453087F82730BB6A5A1C3B6B9A6397F9D1
:1036E0002730B3F1FF3F12D13B6B5B6A002B30D028
:1036F0003B6B24331846FDF7F1FF0346002B28D01F
:103700003B68002B25D03B6801221A6021E0FDF7C1
:103710001DFD386297F927303A6A9A4219D997F90C
:1037200027307F2B0DD14FF0500383F31188BFF367
:103730006F8FBFF34F8FFB6000BF022018F0BAFFFE
:10374000FEE797F827300133DBB25AB23B6B83F8C0
:10375000452001237B6301E000237B63FB6ABB60A0
:10376000BB6883F3118800BF7B6B18463837BD46B2
:1037700080BD80B58CB000AFF860B9607A6000237E
:10378000FB62FB68BB62BB6A002B0DD14FF050039C
:1037900083F31188BFF36F8FBFF34F8F3B6200BF7E
:1037A000022018F087FFFEE7BB68002B11D1BB6A2F
:1037B0001B6C002B0DD04FF0500383F31188BFF327
:1037C0006F8FBFF34F8FFB6100BF022018F072FFB5
:1037D000FEE7FEF74BFB0346002B10D17B68002B66
:1037E0000DD04FF0500383F31188BFF36F8FBFF3F9
:1037F0004F8FBB6100BF022018F05CFFFEE701F0B5
:1038000059FBBB6A9B6B7B627B6A002B1FD0B9683C
:10381000B86A00F0A6FC7B6A5A1EBB6A9A63BB6A50
:103820001B69002B0FD0BB6A10331846FDF756FFFB
:103830000346002B07D03D4B4FF080521A60BFF378
:103840004F8FBFF36F8F01F067FB012369E07B6847
:10385000002B03D101F060FB002362E0FB6A002B28
:1038600006D107F110031846FEF704F90123FB62A5
:1038700001F052FBFDF72EFB01F01CFBBB6A93F835
:1038800044305BB2B3F1FF3F03D1BB6A002283F83F
:103890004420BB6A93F845305BB2B3F1FF3F03D1DC
:1038A000BB6A002283F8452001F036FB3A1D07F180
:1038B000100311461846FEF7F3F80346002B23D1F8
:1038C000B86A00F0C6FC0346002B17D0BB6A24334D
:1038D0007A6811461846FDF77DFEB86A00F067FC6D
:1038E000FDF706FB0346002B89D1104B4FF08052A9
:1038F0001A60BFF34F8FBFF36F8F80E7B86A00F095
:1039000056FCFDF7F5FA7AE7B86A00F050FCFDF7CF
:10391000EFFAB86A00F09DFC0346002B3FF46FAF4E
:10392000002318463037BD4680BD00BF04ED00E0DF
:1039300080B58CB000AF786039600023FB627B6893
:103940007B620023BB627B6A002B0DD14FF05003DA
:1039500083F31188BFF36F8FBFF34F8FBB6100BF3D
:10396000022018F0A7FEFEE77B6A1B6C002B0DD02F
:103970004FF0500383F31188BFF36F8FBFF34F8F66
:103980007B6100BF022018F095FEFEE7FEF76EFA9D
:103990000346002B10D13B68002B0DD04FF0500395
:1039A00083F31188BFF36F8FBFF34F8F3B6100BF6D
:1039B000022018F07FFEFEE701F07CFA7B6A9B6B29
:1039C0003B623B6A002B24D03B6A5A1E7B6A9A6397
:1039D0007B6A1B68002B04D1FEF760FC02467B6A01
:1039E0009A607B6A1B69002B0FD07B6A10331846E4
:1039F000FDF774FE0346002B07D04D4B4FF080526D
:103A00001A60BFF34F8FBFF36F8F01F085FA012368
:103A100089E03B68002B03D101F07EFA002382E0AD
:103A2000FB6A002B06D107F108031846FEF722F8BF
:103A30000123FB6201F070FAFDF74CFA01F03AFA4B
:103A40007B6A93F844305BB2B3F1FF3F03D17B6AEA
:103A5000002283F844207B6A93F845305BB2B3F1CF
:103A6000FF3F03D17B6A002283F8452001F054FA1E
:103A70003A4607F1080311461846FEF711F80346C7
:103A8000002B32D1786A00F0E4FB0346002B26D0ED
:103A90007B6A1B68002B09D101F00CFA7B6A9B68DA
:103AA0001846FEF701FAB86201F036FA7B6A243351
:103AB0003A6811461846FDF78DFD786A00F077FBED
:103AC000FDF716FA0346002B7FF476AF184B4FF044
:103AD00080521A60BFF34F8FBFF36F8F6CE7786A25
:103AE00000F065FBFDF704FA66E7786A00F05FFB1B
:103AF000FDF7FEF9786A00F0ACFB0346002B3FF4BB
:103B00005BAFBB6A002B0DD001F0D4F9786A00F0EE
:103B1000A6FAF8617B6A9B68F9691846FEF7F4FA21
:103B200001F0FAF9002318463037BD4680BD00BFCA
:103B300004ED00E080B58CB000AFF860B9607A6049
:103B40000023FB62FB68BB62BB6A002B06D0BB682C
:103B5000002B11D1BB6A1B6C002B0DD04FF0500312
:103B600083F31188BFF36F8FBFF34F8FFB6100BFEB
:103B7000022018F09FFDFEE7FEF778F90346002BC0
:103B800010D17B68002B0DD04FF0500383F31188C8
:103B9000BFF36F8FBFF34F8FBB6100BF022018F0E0
:103BA00089FDFEE701F086F9BB6A9B6B7B627B6A4D
:103BB000002B21D0BB6ADB683B62B968B86A00F0B1
:103BC000D0FABB6A3A6ADA60BB6A5B6A002B0FD034
:103BD000BB6A24331846FDF781FD0346002B07D04E
:103BE0003C4B4FF080521A60BFF34F8FBFF36F8F83
:103BF00001F092F9012369E07B68002B03D101F009
:103C00008BF9002362E0FB6A002B06D107F1100359
:103C10001846FDF72FFF0123FB6201F07DF9FDF748
:103C200059F901F047F9BB6A93F844305BB2B3F13C
:103C3000FF3F03D1BB6A002283F84420BB6A93F89C
:103C400045305BB2B3F1FF3F03D1BB6A002283F87A
:103C5000452001F061F93A1D07F11003114618469D
:103C6000FDF71EFF0346002B23D1B86A00F0F1FADE
:103C70000346002B17D0BB6A24337A6811461846D6
:103C8000FDF7A8FCB86A00F092FAFDF731F9034697
:103C9000002B87D10F4B4FF080521A60BFF34F8F2C
:103CA000BFF36F8F7EE7B86A00F081FAFDF720F965
:103CB00078E7B86A00F07BFAFDF71AF9B86A00F005
:103CC000C8FA0346002B3FF46DAF00231846303787
:103CD000BD4680BD04ED00E080B590B000AFF86057
:103CE000B9607A60FB68BB63BB6B002B0DD14FF0F2
:103CF000500383F31188BFF36F8FBFF34F8F7B6245
:103D000000BF022018F0D6FCFEE7BB68002B11D1E3
:103D1000BB6B1B6C002B0DD04FF0500383F311884D
:103D2000BFF36F8FBFF34F8F3B6200BF022018F0CD
:103D3000C1FCFEE701F093F9EFF311824FF050035D
:103D400083F31188BFF36F8FBFF34F8FFA61BB61AD
:103D5000FB697B63BB6B9B6B3B633B6B002B49D06D
:103D6000BB6B93F8443087F82F30B968B86B00F01C
:103D7000F8F93B6B5A1EBB6B9A6397F92F30B3F17E
:103D8000FF3F12D1BB6B1B69002B30D0BB6B1033D4
:103D90001846FDF7A3FC0346002B28D07B68002BB8
:103DA00025D07B6801221A6021E0FDF7CFF9B862C7
:103DB00097F92F30BA6A9A4219D997F92F307F2B89
:103DC0000DD14FF0500383F31188BFF36F8FBFF312
:103DD0004F8F7B6100BF022018F06CFCFEE797F864
:103DE0002F300133DBB25AB2BB6B83F8442001237E
:103DF000FB6301E00023FB637B6B3B613B6983F367
:103E0000118800BFFB6B18464037BD4680BD80B5AA
:103E10008CB000AF786039607B68BB62BB6A002BF6
:103E200006D03B68002B11D1BB6A1B6C002B0DD058
:103E30004FF0500383F31188BFF36F8FBFF34F8FA1
:103E4000FB6100BF022018F035FCFEE7BB6A002BC7
:103E500003D0BB6A1B6C002B0DD14FF0500383F3D2
:103E60001188BFF36F8FBFF34F8FBB6100BF02207C
:103E700018F020FCFEE701F0F2F8EFF311824FF0AA
:103E8000500383F31188BFF36F8FBFF34F8F7A61B5
:103E90003B617B697B62BB6A9B6B002B0CD0BB6A6E
:103EA000DB683B623968B86A00F05BF9BB6A3A6A62
:103EB000DA600123FB6201E00023FB627B6AFB60A6
:103EC000FB6883F3118800BFFB6A18463037BD4694
:103ED00080BD80B584B000AF78607B68002B0DD1C9
:103EE0004FF0500383F31188BFF36F8FBFF34F8FF1
:103EF000BB6000BF022018F0DDFBFEE700F0DAFF38
:103F00007B689B6BFB6001F007F8FB681846103775
:103F1000BD4680BD80B586B000AF78607B687B61B0
:103F20007B69002B0DD14FF0500383F31188BFF351
:103F30006F8FBFF34F8FFB6000BF022018F0BAFBFA
:103F4000FEE700F0B7FF7B69DA6B7B699B6BD31AE6
:103F50003B6100F0E1FF3B6918461837BD4680BD64
:103F600080B586B000AF78607B687B617B69002B91
:103F70000DD14FF0500383F31188BFF36F8FBFF360
:103F80004F8FFB6000BF022018F094FBFEE77B69B7
:103F90009B6B3B613B6918461837BD4680BD80B5B9
:103FA00084B000AF78607B68FB60FB68002B0DD1AC
:103FB0004FF0500383F31188BFF36F8FBFF34F8F20
:103FC000BB6000BF022018F075FBFEE7F86800F048
:103FD0003FFAF86800F0AAFB00BF1037BD4680BD6D
:103FE00080B483B000AF78607B689B6C18460C3758
:103FF000BD465DF8047B704780B483B000AF786045
:1040000039607B683A689A6400BF0C37BD465DF83A
:10401000047B704780B483B000AF78607B6893F80E
:104020004C3018460C37BD465DF8047B704780B4B1
:1040300083B000AF78607B681B6C18460C37BD46B8
:104040005DF8047B704780B483B000AF78607B6814
:10405000DB6B18460C37BD465DF8047B704780B4B7
:1040600085B000AF78607B685B6A002B06D07B6808
:104070001B6B1B68C3F10603FB6001E00023FB60C0
:10408000FB6818461437BD465DF8047B704780B561
:1040900086B000AFF860B9607A6000237B61FB688E
:1040A0009B6B3B61FB681B6C002B0DD1FB681B6895
:1040B000002B4DD1FB689B681846FDF787FF7861A0
:1040C000FB6800229A6043E07B68002B19D1FB68F3
:1040D0005868FB681B6C1A46B96818F057FFFB68F4
:1040E0005A68FB681B6C1A44FB685A60FB685A6884
:1040F000FB689B689A422BD3FB681A68FB685A607E
:1041000026E0FB68D868FB681B6C1A46B96818F093
:104110003DFFFB68DA68FB681B6C5B421A44FB6876
:10412000DA60FB68DA68FB681B689A4207D2FB68B2
:104130009A68FB681B6C5B421A44FB68DA607B6818
:10414000022B05D13B69002B02D03B69013B3B614F
:104150003B695A1CFB689A637B6918461837BD4651
:1041600080BD80B582B000AF786039607B681B6C21
:10417000002B18D07B68DA687B681B6C1A447B685C
:10418000DA607B68DA687B689B689A4203D37B6855
:104190001A687B68DA607B68D9687B681B6C1A4692
:1041A000386818F0F3FE00BF0837BD4680BD80B503
:1041B00084B000AF786000F07DFE7B6893F84530F6
:1041C000FB7311E07B685B6A002B12D07B682433A1
:1041D0001846FDF783FA0346002B01D0FDF7C4FC17
:1041E000FB7B013BDBB2FB7397F90F30002BE9DC63
:1041F00000E000BF7B68FF2283F8452000F08CFEC2
:1042000000F058FE7B6893F84430BB7311E07B6884
:104210001B69002B12D07B6810331846FDF75EFA3D
:104220000346002B01D0FDF79FFCBB7B013BDBB2BB
:10423000BB7397F90E30002BE9DC00E000BF7B6810
:10424000FF2283F8442000F067FE00BF1037BD4610
:1042500080BD80B584B000AF786000F02BFE7B6835
:104260009B6B002B02D10123FB6001E00023FB606C
:1042700000F052FEFB6818461037BD4680BD80B581
:1042800086B000AF78607B683B613B69002B0DD145
:104290004FF0500383F31188BFF36F8FBFF34F8F3D
:1042A000FB6000BF022018F005FAFEE73B699B6B3C
:1042B000002B02D101237B6101E000237B617B693C
:1042C00018461837BD4680BD80B584B000AF786011
:1042D00000F0F0FD7B689A6B7B68DB6B9A4202D141
:1042E0000123FB6001E00023FB6000F015FEFB688A
:1042F00018461037BD4680BD80B586B000AF7860E7
:104300007B683B613B69002B0DD14FF0500383F379
:104310001188BFF36F8FBFF34F8FFB6000BF022088
:1043200018F0C8F9FEE73B699A6B3B69DB6B9A4270
:1043300002D101237B6101E000237B617B69184688
:104340001837BD4680BD80B586B000AF7860396053
:1043500000233B617B68002B0DD14FF0500383F3AA
:104360001188BFF36F8FBFF34F8FFB6000BF022038
:1043700018F0A0F9FEE73B68002B24D000237B61F6
:104380001EE0174A7B69DB0013445B687A689A4237
:1043900005D17B69DB00124A13443B6113E03B69A2
:1043A000002B0AD10E4A7B6952F83330002B04D11E
:1043B0007B69DB000A4A13443B617B6901337B6103
:1043C0007B69092BDDD93B69002B05D03B693A6835
:1043D0001A603B697A685A6000BF1837BD4680BDD5
:1043E000C807003080B586B000AF786000233B611D
:1043F0007B68002B0DD14FF0500383F31188BFF37E
:104400006F8FBFF34F8FFB6000BF022018F052F98F
:10441000FEE700237B6110E00C4A7B69DB0013445C
:104420005B687A689A4205D1084A7B6952F8333052
:104430003B6105E07B6901337B617B69092BEBD92B
:104440003B6918461837BD4680BD00BFC80700301D
:1044500080B584B000AF78607B68002B0DD14FF041
:10446000500383F31188BFF36F8FBFF34F8FBB608F
:1044700000BF022018F01EF9FEE70023FB6016E0E3
:104480000F4AFB68DB0013445B687A689A420BD1E1
:104490000B4AFB68002142F83310094AFB68DB0035
:1044A000134400225A6006E0FB680133FB60FB689E
:1044B000092BE5D900BF00BF1037BD4680BD00BF46
:1044C000C807003080B58EB000AF78600023FB6273
:1044D0000023BB627B68002B22D00823DB437A6871
:1044E0009A421BD808227B6813447B607B6803F0E8
:1044F0000703002B14D07B6803F00703C3F1080304
:104500007B627B6ADB437A689A4204D87A687B6A6A
:1045100013447B6004E000237B6001E000237B60A8
:10452000FCF7D8FC7A4B1B68002B01D100F0D5F9C1
:104530007B68002BC0F2D2807B68002B00F0CE801D
:10454000744B1B687A689A4200F2C880724B3B63D6
:10455000714B1B687B637B6B704A934203D37B6B0D
:104560006F4A934228D94FF0500383F31188BFF369
:104570006F8FBFF34F8FFB6100BF022018F09AF8D6
:10458000FEE77B6B3B637B6B1B687B637B6B634AE8
:10459000934203D37B6B624A93420DD94FF0500391
:1045A00083F31188BFF36F8FBFF34F8FBB6100BFE1
:1045B000022018F07FF8FEE77B6B5B687A689A420E
:1045C00003D97B6B1B68002BDBD1514B1B687A6BCB
:1045D0009A4200F083803B6B1B6808221344FB6205
:1045E000FB6A4E4A934203D3FB6A4D4A93420DD96C
:1045F0004FF0500383F31188BFF36F8FBFF34F8FDA
:104600007B6100BF022018F055F8FEE77B6B1A684B
:104610003B6B1A607B6B5B687A689A420DD94FF0EE
:10462000500383F31188BFF36F8FBFF34F8F3B614C
:1046300000BF022018F03EF8FEE77B6B5A687B68EB
:10464000D21A08235B009A4226D97A6B7B681344FE
:104650003B623B6A03F00703002B0DD04FF0500381
:1046600083F31188BFF36F8FBFF34F8FFB6000BFE1
:10467000022018F01FF8FEE77B6B5A687B68D21A9D
:104680003B6A5A607B6B7A685A603B6B1A683B6A7C
:104690001A603B6B3A6A1A601E4B1A687B6B5B6848
:1046A000D31A1C4A13601B4B1A681E4B1B689A4294
:1046B00003D2184B1B681B4A13607B6B5B68BB62A1
:1046C0007B6B5B6843F000427B6B5A607B6B002224
:1046D0001A60154B1B680133134A1360FCF708FC82
:1046E000FB6A03F00703002B0DD04FF0500383F358
:1046F0001188BFF36F8FBFF34F8FBB6000BF0220E5
:1047000017F0D8FFFEE7FB6A18463837BD4680BD74
:104710002018003024180030181800301808003015
:1047200017180030281800302C18003080B588B0D9
:1047300000AF78607B68FB617B68002B61D0082349
:104740005B42FA691344FB61FB69BB61BB692F4A99
:10475000934203D3BB692E4A93420DD94FF05003C5
:1047600083F31188BFF36F8FBFF34F8F7B6100BF5F
:10477000022017F09FFFFEE7BB695B68002B0DDB93
:104780004FF0500383F31188BFF36F8FBFF34F8F48
:104790003B6100BF022017F08DFFFEE7BB691B687D
:1047A000002B0DD04FF0500383F31188BFF36F8FB0
:1047B000BFF34F8FFB6000BF022017F07BFFFEE7C7
:1047C000BB695B68002B1CDABB691B68002B18D126
:1047D000BB695B6823F00042BB695A60FCF77AFB57
:1047E000BB695A680B4B1B6813440A4A1360B869CB
:1047F00000F0CEF8084B1B680133074A1360FCF742
:1048000077FB00BF2037BD4680BD00BF18080030D1
:1048100017180030241800303018003080B400AF72
:10482000034B1B681846BD465DF8047B704700BF0C
:104830002418003080B400AF034B1B681846BD46F7
:104840005DF8047B704700BF2818003080B400AFCB
:10485000044B1B68044A136000BFBD465DF8047B2F
:10486000704700BF241800302818003080B400AF13
:1048700000BFBD465DF8047B704780B584B000AFD3
:10488000786039600023FB607B68002B09D04FF013
:10489000FF327B68B2FBF3F33A689A4201D90123F5
:1048A00000E00023002B13D17B683A6802FB03F37E
:1048B0001846FFF707FEF860FB68002B08D07B68FE
:1048C0003A6802FB03F31A460021F86818F028FF43
:1048D000FB6818461037BD4680BD80B485B000AF78
:1048E0004FF48053BB60254BFB60FB6803F007036C
:1048F000002B0CD0FB680733FB60FB6823F0070339
:10490000FB60BA68FB68D31A1C4A1344BB60FB689F
:104910001B4A13601A4B00225A60FA68BB681344A2
:104920007B6008227B689B1A7B607B6823F007030F
:104930007B607B68134A1360124B1B6800225A602D
:10494000104B1B6800221A60FB683B603B687A686A
:10495000D21A3B685A600B4B1A683B681A603B6876
:104960005B68094A13603B685B68084A136000BFD4
:104970001437BD465DF8047B704700BF180800304F
:104980001818003020180030281800302418003083
:1049900080B586B000AF7860344B7B6102E07B6904
:1049A0001B687B617B691B687A689A42F7D87B69D0
:1049B0002E4A934215D07B692D4A934203D37B69DB
:1049C0002C4A93420DD94FF0500383F31188BFF363
:1049D0006F8FBFF34F8FFB6000BF022017F06AFE9E
:1049E000FEE77B693B617B695B683A6913447A68DF
:1049F0009A4208D17B695A687B685B681A447B6974
:104A00005A607B697B607B683B617B685B683A6965
:104A10001A447B691B689A4218D17B691A68164B45
:104A20001B689A420DD07B685A687B691B685B687B
:104A30001A447B685A607B691B681A687B681A6035
:104A400008E00D4B1A687B681A6003E07B691A68FE
:104A50007B681A607A697B689A4202D07B697A68BF
:104A60001A6000BF1837BD4680BD00BF181800305F
:104A700018080030171800302018003080B586B0B4
:104A800000AF786000233B610023FB604FF0FF33F1
:104A9000BB60FCF71FFA224B1B687B617B69002B14
:104AA0001BD015E03B6901333B617B695B68FA68A9
:104AB0009A4202D27B695B68FB607B695B68BA687B
:104AC0009A4202D97B695B68BB607B691B687B612A
:104AD000144B1B687A699A42E4D1FCF709FA7B68A7
:104AE000FA685A607B68BA689A607B683A69DA60EB
:104AF00000F0E0F90C4B1A687B681A600B4B1A68DF
:104B00007B685A610A4B1A687B689A61094B1A687C
:104B10007B681A6100F000FA00BF1837BD4680BDFF
:104B20001818003020180030241800302C180030DD
:104B3000301800302818003080B400AF094B002234
:104B40001A60094B00221A60084B00221A60084BB9
:104B500000221A60074B00221A6000BFBD465DF8B4
:104B6000047B7047201800302418003028180030CB
:104B70002C1800303018003080B485B000AFF860D9
:104B8000B9607A60FB68043BFB60FB684FF08072A1
:104B90001A60FB68043BFB60BB6823F00102FB6802
:104BA0001A60FB68043BFB600C4AFB681A60FB68F8
:104BB000143BFB607A68FB681A60FB68043BFB608F
:104BC000FB686FF002021A60FB68203BFB60FB6829
:104BD00018461437BD465DF8047B7047E14B10085A
:104BE00080B584B000AF00237B60134B1B68B3F12A
:104BF000FF3F0DD04FF0500383F31188BFF36F8F49
:104C0000BFF34F8FFB6000BF022017F053FDFEE79C
:104C10004FF0500383F31188BFF36F8FBFF34F8FB3
:104C2000BB6000BF00BF7B68002BFCD000BF00BF93
:104C30001037BD4680BD00BF08000030064B196824
:104C40000868B0E8F04F80F30988BFF36F8F4FF02A
:104C5000000080F311887047DC06003000BF084870
:104C60000068006880F308884FF0000080F3148823
:104C700062B661B6BFF34F8FBFF36F8F00DF00BF27
:104C800008ED00E000BF80B58CB000AF6E4B1B6834
:104C90006E4A93420DD14FF0500383F31188BFF356
:104CA0006F8FBFF34F8F7B6200BF022017F002FDB2
:104CB000FEE7654B1B68664A93420DD14FF05003E7
:104CC00083F31188BFF36F8FBFF34F8F3B6200BF39
:104CD000022017F0EFFCFEE75E4B1B68FB62FB6AED
:104CE0002C331B685C4A93420DD04FF0500383F382
:104CF0001188BFF36F8FBFF34F8FFB6100BF02209E
:104D000017F0D8FCFEE7FB6A38331B68534A93421E
:104D10000DD04FF0500383F31188BFF36F8FBFF3B3
:104D20004F8FBB6100BF022017F0C4FCFEE70023D9
:104D3000BB604B4BBB62BB6A1B78DBB2FB73BB6ACD
:104D4000FF221A70BB6A1B78DBB2FB71FB79DBB206
:104D500003F05003DAB2434B1A70424B1B78002B1E
:104D60000DD14FF0500383F31188BFF36F8FBFF362
:104D70004F8F7B6100BF022017F09CFCFEE7FB79A0
:104D8000DBB2DB4303F05003002B15D04FF0500390
:104D900083F31188BFF36F8FBFF34F8F3B6100BF69
:104DA000022017F087FCFEE7BB680133BB60FB798C
:104DB000DBB25B00DBB2FB71FB79DBB203F080039B
:104DC000802BF1D0BB68082B03D1274B00221A603F
:104DD00004E0BB68C3F10703234A1360224B1B683E
:104DE0001B02214A1360204B1B6803F4E0631E4A38
:104DF0001360FB7BDAB2BB6A1A701C4B1B681B4A40
:104E000043F47F031360194B1B68184A43F07F4338
:104E10001360174B00221A6000F0FAF8154B0022BD
:104E20001A6000F011F9144B1B68134A43F0404319
:104E30001360FFF714FFFCF76DFBFFF7D1FE0023B3
:104E400018463037BD4680BD00ED00E071C20F410D
:104E500070C20F4108ED00E03D4C10086D4F100886
:104E600000E400E0341800303818003020ED00E095
:104E70001CED00E00800003034EF00E080B582B0A7
:104E800000AF0B4B1B68B3F57A7F0DD04FF050038A
:104E900083F31188BFF36F8FBFF34F8F7B6000BF29
:104EA000022017F007FCFEE700BF0837BD4680BDB3
:104EB0000800003080B582B000AF4FF0500383F39C
:104EC0001188BFF36F8FBFF34F8F7B6000BF104B14
:104ED0001B6801330E4A13600D4B1B68012B12D166
:104EE0000C4B1B68DBB2002B0DD04FF0500383F34B
:104EF0001188BFF36F8FBFF34F8F3B6000BF02205D
:104F000017F0D8FBFEE700BF0837BD4680BD00BFE5
:104F10000800003004ED00E080B582B000AF124B15
:104F20001B68002B0DD14FF0500383F31188BFF3A2
:104F30006F8FBFF34F8F7B6000BF022017F0BAFB6B
:104F4000FEE7094B1B68013B074A1360064B1B68D1
:104F5000002B05D100233B603B6883F3118800BF21
:104F600000BF0837BD4680BD08000030EFF3098060
:104F7000BFF36F8F134B1A681EF0100F08BF20EDA0
:104F8000108A20E9F04F106009B44FF0500080F310
:104F90001188BFF34F8FBFF36F8FFCF7BBFA4FF051
:104FA000000080F3118809BC19680868B0E8F04F68
:104FB0001EF0100F08BFB0EC108A80F30988BFF311
:104FC0006F8F7047DC06003000BF80B582B000AF45
:104FD0004FF0500383F31188BFF36F8FBFF34F8FF0
:104FE0007B6000BFFCF77AF90346002B03D0074B28
:104FF0004FF080521A6000233B603B6883F31188B6
:1050000000BF00BF0837BD4680BD00BF04ED00E013
:1050100080B400AF084B00221A60084B00221A60CF
:10502000074B084A1A60044B07221A6000BFBD46AE
:105030005DF8047B704700BF10E000E018E000E07E
:1050400014E000E0FFC30900DFF80C00016841F440
:10505000700101607047000088ED00E000BF80B57E
:1050600084B000AFEFF30583FB60FB680F2B17D90B
:10507000184AFB6813441B78FB72174B1B78FA7AAB
:105080009A420DD24FF0500383F31188BFF36F8F14
:10509000BFF34F8F7B6000BF022017F00BFBFEE7D2
:1050A0000E4B1B6803F4E0620D4B1B689A420DD94E
:1050B0004FF0500383F31188BFF36F8FBFF34F8F0F
:1050C0003B6000BF022017F0F5FAFEE700BF103783
:1050D000BD4680BDF0E300E0341800300CED00E088
:1050E00038180030B0B5B0B002AF634BD3F8E03041
:1050F000614A43F00803C2F8E0305F4BD3F8E03078
:1051000003F00803FB64FB6C5B4BD3F8E0305A4AB6
:1051100043F00803C2F8E030574BD3F8E03003F017
:105120000803BB64BB6C544BD3F8E830524A43F4D9
:105130000033C2F8E830504BD3F8E83003F40033C2
:105140007B647B6C00220521262001F014FE2620C2
:1051500001F02BFE494B20221A60484B02225A6074
:10516000464B0222DA60454B00229A60434B0722ED
:105170001A614249424806F049F9404B40221A6000
:105180003E4B02225A603D4B01229A603B4B072264
:105190001A613A493A4806F039F93A4B3A4A1A60E4
:1051A000384B4FF4E1325A60364B00229A60354B4F
:1051B0000022DA60334B00221A61324B00229A61DE
:1051C000304B0C225A612F4B0022DA612D4812F02D
:1051D000CFF80346002B01D000F0ECF8294BD3F8B0
:1051E0008830202B01D000F0E5F8274B1A68264BB9
:1051F0005968254B9B6907F1500000930B462349E2
:1052000018F024FA07F15003184600F077F9204807
:1052100000F074F902221F491A4812F06BFC034691
:1052200087F8B73097F8B730002B11D01A4B07F139
:1052300028041D460FCD0FC495E8070003C4228043
:1052400007F12803184600F059F900F0B3F80EE012
:10525000124B3C461D460FCD0FC40FCD0FC495E831
:10526000030084E803003B46184600F047F900BFFE
:10527000B837BD46B0BD00BF004402589819003091
:10528000000C02584C18003000440040F44812084A
:1052900024491208C0190030504912086C491208FC
:1052A00080B582B000AF78607B68002B0AD0786848
:1052B00017F0AAFE03469AB24FF47A73796803484E
:1052C00012F02DFA00BF0837BD4680BD4C180030E3
:1052D00090B589B000AF78607B681B68124A934232
:1052E0001DD10121114806F07CFB114B07F1100480
:1052F0000FCB84E80F0007F11003184600F0FEF80A
:105300000C4800F0FBF80C4BFB6007F10C0318464F
:1053100000F0F4F802220749084812F0EBFB00BF46
:105320002437BD4690BD00BF004400400004025831
:1053300094491208C0190030270D0A004C1800309B
:10534000B0B58CB000AF78607B681B68154A93429B
:1053500023D1154B07F10C041D460FCD0FC40FCD03
:105360000FC42B68238007F10C03184600F0C6F821
:105370000E4B1B6808221A620C4B1B6804221A622F
:105380000A4B1B6802221A62084B1B6801221A6230
:1053900002220749054812F0ADFB00BF3037BD4679
:1053A000B0BD00BF00440040A44912084C180030B2
:1053B000C019003080B500AF72B600BF034800F0DE
:1053C0009DF842F2107000F0A3FDF7E7C8491208FB
:1053D000B0B58EB000AF434BD3F8E030414A43F054
:1053E0000803C2F8E0303F4BD3F8E03003F0080385
:1053F000BB60BB683B4BD3F8E0303A4A43F008034C
:10540000C2F8E030374BD3F8E03003F008037B609C
:105410007B68344BD3F8E830324A43F48023C2F837
:10542000E830304BD3F8E83003F480233B603B682E
:105430002D4B4FF480721A602B4B02225A602A4B7C
:105440000222DA60284B00229A60274B07221A6159
:105450002549264805F0DAFF234B4FF400721A6005
:10546000214B02225A60204B01229A601E4B0722D8
:105470001A611D491D4805F0C9FF1D4B1D4A1A60E0
:105480001B4B4FF4E1325A60194B00229A60184BC3
:105490000022DA60164B00221A61154B00229A6135
:1054A000134B0C225A61124B0022DA61104811F0A2
:1054B0005FFF0F4BD3F888300F4B07F10C041D46EC
:1054C0000FCD0FC40FCD0FC495E8070003C4228091
:1054D00007F10C03184600F011F800BF3837BD463D
:1054E000B0BD00BF00440258AC190030000C025897
:1054F000E0180030004800402449120880B582B00E
:1055000000AF78607B681B78002B0AD0786817F0B2
:105510007BFD03469AB24FF47A737968034812F020
:10552000FEF800BF0837BD4680BD00BFE018003060
:1055300080B58AB000AF78600A4B1B6807F108019C
:105540004FF0FF321846FEF714F90346012B04D141
:1055500007F108031846FFF7D1FF0020FBF77CFB9B
:10556000EAE700BFD419003080B58AB000AF786098
:105570001D4B1B684FF0FF311846FEF7D9F9034663
:10558000012B1AD1194B1B684FF0FF311846FEF75B
:10559000CFF90346012B09D1154B06221A70134B84
:1055A0001868002300220021FDF79EFE0E4B1868AC
:1055B000002300220021FDF797FE07F108030D4AA2
:1055C0002021184617F04BFD0B4B186807F1080116
:1055D00000230A22FDF788FE022017F0BFF83220D0
:1055E000FBF73AFBC4E700BFC8190030C41900300C
:1055F000D8190030E4491208D419003080B58AB0B7
:1056000000AF7860144B1B684FF0FF311846FEF76F
:105610008FF90346012B09D1104B04221A700E4B4F
:105620001868002300220021FDF75EFE07F1080341
:105630000B4A2021184617F012FD0A4B186807F193
:10564000080100230A22FDF74FFE012017F086F81B
:105650003220FBF701FBD5E7CC190030D819003018
:10566000F8491208D419003080B500AF72B600BFF7
:105670000148FFF743FFFBE70C4A120880B598B0DA
:1056800004AF6E4BD3F8E8306C4A43F40013C2F811
:10569000E8306A4BD3F8E83003F400133B603B6812
:1056A00007F1300300221A605A609A60DA601A61CA
:1056B0004FF480733B6312237B630023BB6304239B
:1056C0003B640023FB6307F1300319465C4805F097
:1056D0009DFE07F11C0300221A605A609A60DA608E
:1056E0001A614FF40073FB6112233B6200237B625B
:1056F0000423FB620023BB6207F11C0319465048D8
:1057000005F084FE4F4B504A1A604E4B4F4A5A6088
:105710004C4B00229A604B4B0122DA60494B00222D
:105720001A61484B00225A61464B00229A61454B50
:105730000022DA61434B00221A62424806F0A4FAC2
:105740000346002B01D0FFF78FFF00213D480CF0EE
:10575000C3F80346002B01D0FFF786FF002139482C
:105760000CF005F90346002B01D0FFF77DFF07F190
:10577000080300221A605A609A60DA601A610123F5
:10578000BB604FF44413FB6000233B6100237B614B
:1057900007F1080319462A4805F038FED02387F898
:1057A0004F300123A7F84C300123FB710123A7F8E8
:1057B0004A3064237B6497F84F3099B2B7F84C2095
:1057C0007B6C0293B7F84A300193FB1D009313469C
:1057D00038221C4807F00EFDFA23FB7197F84F3072
:1057E00099B2B7F84C207B6C0293B7F84A3001931A
:1057F000FB1D009313461922124807F0FBFC0123FE
:10580000FB7197F84F3099B2B7F84C207B6C02933C
:10581000B7F84A300193FB1D009313461A2209483A
:1058200007F0E8FC00220221062001F0A4FA06207D
:1058300001F0BBFA00BF5037BD4680BD004402589E
:1058400000040258DC19003000540040CE9F900044
:10585000F0B58FB006AFD023FB770123BB832423A1
:10586000FB7601233B8364237B610E237B82FB7FDA
:1058700099B2BA8B7B6902937B8A01933B1D00939B
:1058800013463B22374807F0C9FD3B791BB21B0288
:105890001AB27B791BB213431AB2334B1A80BB790D
:1058A0001BB21B021AB2FB791BB213431AB22F4B65
:1058B0001A803B7A1BB21B021AB27B7A1BB21343CB
:1058C0001AB22B4B1A80BB7A1BB21B021AB2FB7A9C
:1058D0001BB213431AB2274B1A803B7B1BB21B022D
:1058E0001AB27B7B1BB213431AB2234B1A80BB7BC9
:1058F0001BB21B021AB2FB7B1BB213431AB21F4B23
:105900001A803B7C1BB21B021AB27B7C1BB2134376
:105910001AB21B4B1A800023FB76134BB3F900001D
:10592000124BB3F90010124BB3F90040124BB3F90C
:105930000050124BB3F90030114AB2F90020114E59
:105940000496114E0396114E0296019200932B4637
:10595000224600F026F800F01BF800BF2437BD46B1
:10596000F0BD00BFDC190030301A0030321A0030B0
:10597000341A00303C1A0030361A0030381A003021
:105980003A1A0030421A0030401A00303E1A0030F5
:1059900080B49BB000AF00BF6C37BD465DF8047BA0
:1059A000704790B52DED028BA5B002AF04460846B6
:1059B00011461A462346FB800346BB800B467B807C
:1059C00013463B804FF07A53C7F88430904BC7F8AA
:1059D0008030B7F906305B4207EE903AB8EEE78ABE
:1059E000B7F90430B7F9042003FB02F2B7F902302B
:1059F000B7F9021001FB03F3134407EE903AF8EEF7
:105A0000E77AB0EE670A17F08BFBF0EE407AF0EE23
:105A1000670AB0EE480A17F081FBF0EE407A9FED7E
:105A20007D7A67EE877A17EE900A1EF0EFF976A37B
:105A3000D3E900231EF06CFB02460B4610461946C4
:105A40001EF014FD0346FB67B7F9043007EE903AE9
:105A5000B8EEE78AB7F90630B7F9062003FB02F281
:105A6000B7F90230B7F9021001FB03F3134407EE54
:105A7000903AF8EEE77AB0EE670A17F051FBF0EED5
:105A8000407AF0EE670AB0EE480A17F047FBF0EEF6
:105A9000407A9FED607A67EE877A17EE900A1EF0E3
:105AA000B5F959A3D3E900231EF032FB02460B4699
:105AB000104619461EF0DAFC0346BB67B7F9A03062
:105AC00007EE903AB8EEE77AD7ED217A27EE277AFB
:105AD000514BD3ED007A77EE277AC7ED1D7AB7F9EF
:105AE000003007EE903AB8EEE77AD7ED217A27EE4C
:105AF000277A4A4BD3ED007A77EE277AC7ED1C7AE6
:105B0000D7ED1F7AFDEEE77A17EE903A1BB21946F1
:105B1000B7F9A430424AD2ED007AFDEEE77A17EEEB
:105B2000902A12B207F10C0000920A463D4917F084
:105B30008DFD07F10C031846FFF7E0FC97ED207A86
:105B4000D7ED1D7A27EE277AF7EE006AD7ED207A97
:105B500076EEE76AD7ED1F7A66EEA77A77EE277AB8
:105B60002D4BC3ED007A97ED207AD7ED1C7A27EE06
:105B7000277AF7EE006AD7ED207A76EEE76AD7ED5E
:105B80001E7A66EEA77A77EE277A244BC3ED007A69
:105B9000B7F9A4306A3B07EE903AB8EEE77AD7ED52
:105BA000217A27EE277A1E4BD3ED007A77EE277AFB
:105BB0001B4BC3ED007A184BD3ED007AFDEEE77A6C
:105BC00017EE903A1AB2D7F8A8301A80134BD3EDDB
:105BD000007AFDEEE77A17EE903A1AB2D7F8AC30B9
:105BE0001A800F4BD3ED007AFDEEE77A17EE903A6C
:105BF0001AB2D7F8B0301A8000BF8C37BD46BDEC62
:105C0000028B90BDAFF30080182D4454FB21094056
:105C10008FC2753F00003443441A0030481A0030E8
:105C20004C1A00302C4A120880B59CB000AF0346D5
:105C3000FB8007F10C030549184617F007FDFFF735
:105C400007FE00BF7037BD4680BD00BF3C4A12084A
:105C500080B582B000AF284BD3F8D830264A43F441
:105C60008043C2F8D830244BD3F8D83003F48043B3
:105C70003B603B68214B1B6823F47F2323F4706354
:105C80001E4A43F4014313601C4B1B681B4A43F03C
:105C900001031360032001F063F80DF02DFF0246AD
:105CA000154B9B691B0A03F00F031549CB5C03F0EE
:105CB0001F0322FA03F37B600F4B9B6903F00F0372
:105CC0000F4AD35C03F01F037A6822FA03F30D4AEC
:105CD00013600C4B1B680C4A13600F2000F082F815
:105CE0000346002B01D0012302E000F06DF80023F1
